{
  "_format": "hh-sol-artifact-1",
  "contractName": "HUMToken",
  "sourceName": "contracts/HUMToken.sol",
  "abi": [
    {
      "inputs": [
        {
          "internalType": "address",
          "name": "_treasury",
          "type": "address"
        },
        {
          "internalType": "uint256",
          "name": "_initialSupply",
          "type": "uint256"
        },
        {
          "internalType": "uint256",
          "name": "_maxWalletSize",
          "type": "uint256"
        },
        {
          "internalType": "uint256",
          "name": "_maxTxAmount",
          "type": "uint256"
        }
      ],
      "stateMutability": "nonpayable",
      "type": "constructor"
    },
    {
      "anonymous": false,
      "inputs": [
        {
          "indexed": true,
          "internalType": "address",
          "name": "owner",
          "type": "address"
        },
        {
          "indexed": true,
          "internalType": "address",
          "name": "spender",
          "type": "address"
        },
        {
          "indexed": false,
          "internalType": "uint256",
          "name": "value",
          "type": "uint256"
        }
      ],
      "name": "Approval",
      "type": "event"
    },
    {
      "anonymous": false,
      "inputs": [
        {
          "indexed": false,
          "internalType": "uint256",
          "name": "previousFee",
          "type": "uint256"
        },
        {
          "indexed": false,
          "internalType": "uint256",
          "name": "newFee",
          "type": "uint256"
        }
      ],
      "name": "FeeChanged",
      "type": "event"
    },
    {
      "anonymous": false,
      "inputs": [
        {
          "indexed": false,
          "internalType": "uint256",
          "name": "previousAmount",
          "type": "uint256"
        },
        {
          "indexed": false,
          "internalType": "uint256",
          "name": "newAmount",
          "type": "uint256"
        }
      ],
      "name": "MaxTxAmountChanged",
      "type": "event"
    },
    {
      "anonymous": false,
      "inputs": [
        {
          "indexed": false,
          "internalType": "uint256",
          "name": "previousSize",
          "type": "uint256"
        },
        {
          "indexed": false,
          "internalType": "uint256",
          "name": "newSize",
          "type": "uint256"
        }
      ],
      "name": "MaxWalletSizeChanged",
      "type": "event"
    },
    {
      "anonymous": false,
      "inputs": [
        {
          "indexed": true,
          "internalType": "address",
          "name": "previousOwner",
          "type": "address"
        },
        {
          "indexed": true,
          "internalType": "address",
          "name": "newOwner",
          "type": "address"
        }
      ],
      "name": "OwnershipTransferred",
      "type": "event"
    },
    {
      "anonymous": false,
      "inputs": [
        {
          "indexed": true,
          "internalType": "address",
          "name": "from",
          "type": "address"
        },
        {
          "indexed": true,
          "internalType": "address",
          "name": "to",
          "type": "address"
        },
        {
          "indexed": false,
          "internalType": "uint256",
          "name": "value",
          "type": "uint256"
        }
      ],
      "name": "Transfer",
      "type": "event"
    },
    {
      "anonymous": false,
      "inputs": [
        {
          "indexed": true,
          "internalType": "address",
          "name": "previousTreasury",
          "type": "address"
        },
        {
          "indexed": true,
          "internalType": "address",
          "name": "newTreasury",
          "type": "address"
        }
      ],
      "name": "TreasuryChanged",
      "type": "event"
    },
    {
      "inputs": [],
      "name": "FEE_DENOMINATOR",
      "outputs": [
        {
          "internalType": "uint256",
          "name": "",
          "type": "uint256"
        }
      ],
      "stateMutability": "view",
      "type": "function"
    },
    {
      "inputs": [
        {
          "internalType": "address",
          "name": "owner",
          "type": "address"
        },
        {
          "internalType": "address",
          "name": "spender",
          "type": "address"
        }
      ],
      "name": "allowance",
      "outputs": [
        {
          "internalType": "uint256",
          "name": "",
          "type": "uint256"
        }
      ],
      "stateMutability": "view",
      "type": "function"
    },
    {
      "inputs": [
        {
          "internalType": "address",
          "name": "spender",
          "type": "address"
        },
        {
          "internalType": "uint256",
          "name": "amount",
          "type": "uint256"
        }
      ],
      "name": "approve",
      "outputs": [
        {
          "internalType": "bool",
          "name": "",
          "type": "bool"
        }
      ],
      "stateMutability": "nonpayable",
      "type": "function"
    },
    {
      "inputs": [
        {
          "internalType": "address",
          "name": "account",
          "type": "address"
        }
      ],
      "name": "balanceOf",
      "outputs": [
        {
          "internalType": "uint256",
          "name": "",
          "type": "uint256"
        }
      ],
      "stateMutability": "view",
      "type": "function"
    },
    {
      "inputs": [
        {
          "internalType": "uint256",
          "name": "amount",
          "type": "uint256"
        }
      ],
      "name": "burn",
      "outputs": [],
      "stateMutability": "nonpayable",
      "type": "function"
    },
    {
      "inputs": [],
      "name": "decimals",
      "outputs": [
        {
          "internalType": "uint8",
          "name": "",
          "type": "uint8"
        }
      ],
      "stateMutability": "view",
      "type": "function"
    },
    {
      "inputs": [
        {
          "internalType": "address",
          "name": "spender",
          "type": "address"
        },
        {
          "internalType": "uint256",
          "name": "subtractedValue",
          "type": "uint256"
        }
      ],
      "name": "decreaseAllowance",
      "outputs": [
        {
          "internalType": "bool",
          "name": "",
          "type": "bool"
        }
      ],
      "stateMutability": "nonpayable",
      "type": "function"
    },
    {
      "inputs": [],
      "name": "feeBasisPoints",
      "outputs": [
        {
          "internalType": "uint256",
          "name": "",
          "type": "uint256"
        }
      ],
      "stateMutability": "view",
      "type": "function"
    },
    {
      "inputs": [
        {
          "internalType": "address",
          "name": "spender",
          "type": "address"
        },
        {
          "internalType": "uint256",
          "name": "addedValue",
          "type": "uint256"
        }
      ],
      "name": "increaseAllowance",
      "outputs": [
        {
          "internalType": "bool",
          "name": "",
          "type": "bool"
        }
      ],
      "stateMutability": "nonpayable",
      "type": "function"
    },
    {
      "inputs": [],
      "name": "maxTxAmount",
      "outputs": [
        {
          "internalType": "uint256",
          "name": "",
          "type": "uint256"
        }
      ],
      "stateMutability": "view",
      "type": "function"
    },
    {
      "inputs": [],
      "name": "maxWalletSize",
      "outputs": [
        {
          "internalType": "uint256",
          "name": "",
          "type": "uint256"
        }
      ],
      "stateMutability": "view",
      "type": "function"
    },
    {
      "inputs": [
        {
          "internalType": "address",
          "name": "to",
          "type": "address"
        },
        {
          "internalType": "uint256",
          "name": "amount",
          "type": "uint256"
        }
      ],
      "name": "mint",
      "outputs": [],
      "stateMutability": "nonpayable",
      "type": "function"
    },
    {
      "inputs": [],
      "name": "name",
      "outputs": [
        {
          "internalType": "string",
          "name": "",
          "type": "string"
        }
      ],
      "stateMutability": "view",
      "type": "function"
    },
    {
      "inputs": [],
      "name": "owner",
      "outputs": [
        {
          "internalType": "address",
          "name": "",
          "type": "address"
        }
      ],
      "stateMutability": "view",
      "type": "function"
    },
    {
      "inputs": [],
      "name": "renounceOwnership",
      "outputs": [],
      "stateMutability": "nonpayable",
      "type": "function"
    },
    {
      "inputs": [
        {
          "internalType": "uint256",
          "name": "_feeBasisPoints",
          "type": "uint256"
        }
      ],
      "name": "setFee",
      "outputs": [],
      "stateMutability": "nonpayable",
      "type": "function"
    },
    {
      "inputs": [
        {
          "internalType": "uint256",
          "name": "_maxTxAmount",
          "type": "uint256"
        }
      ],
      "name": "setMaxTxAmount",
      "outputs": [],
      "stateMutability": "nonpayable",
      "type": "function"
    },
    {
      "inputs": [
        {
          "internalType": "uint256",
          "name": "_maxWalletSize",
          "type": "uint256"
        }
      ],
      "name": "setMaxWalletSize",
      "outputs": [],
      "stateMutability": "nonpayable",
      "type": "function"
    },
    {
      "inputs": [
        {
          "internalType": "address",
          "name": "_treasury",
          "type": "address"
        }
      ],
      "name": "setTreasury",
      "outputs": [],
      "stateMutability": "nonpayable",
      "type": "function"
    },
    {
      "inputs": [],
      "name": "symbol",
      "outputs": [
        {
          "internalType": "string",
          "name": "",
          "type": "string"
        }
      ],
      "stateMutability": "view",
      "type": "function"
    },
    {
      "inputs": [],
      "name": "totalSupply",
      "outputs": [
        {
          "internalType": "uint256",
          "name": "",
          "type": "uint256"
        }
      ],
      "stateMutability": "view",
      "type": "function"
    },
    {
      "inputs": [
        {
          "internalType": "address",
          "name": "to",
          "type": "address"
        },
        {
          "internalType": "uint256",
          "name": "amount",
          "type": "uint256"
        }
      ],
      "name": "transfer",
      "outputs": [
        {
          "internalType": "bool",
          "name": "",
          "type": "bool"
        }
      ],
      "stateMutability": "nonpayable",
      "type": "function"
    },
    {
      "inputs": [
        {
          "internalType": "address",
          "name": "from",
          "type": "address"
        },
        {
          "internalType": "address",
          "name": "to",
          "type": "address"
        },
        {
          "internalType": "uint256",
          "name": "amount",
          "type": "uint256"
        }
      ],
      "name": "transferFrom",
      "outputs": [
        {
          "internalType": "bool",
          "name": "",
          "type": "bool"
        }
      ],
      "stateMutability": "nonpayable",
      "type": "function"
    },
    {
      "inputs": [
        {
          "internalType": "address",
          "name": "newOwner",
          "type": "address"
        }
      ],
      "name": "transferOwnership",
      "outputs": [],
      "stateMutability": "nonpayable",
      "type": "function"
    },
    {
      "inputs": [],
      "name": "treasury",
      "outputs": [
        {
          "internalType": "address",
          "name": "",
          "type": "address"
        }
      ],
      "stateMutability": "view",
      "type": "function"
    }
  ],
  "bytecode": "0x6080604052609660075534801561001557600080fd5b506040516130a73803806130a783398181016040528101906100379190610613565b6040518060400160405280600981526020017f48554d20546f6b656e00000000000000000000000000000000000000000000008152506040518060400160405280600381526020017f48554d000000000000000000000000000000000000000000000000000000000081525081600390816100b291906108c0565b5080600490816100c291906108c0565b5050506100e16100d66101fd60201b60201c565b61020560201b60201c565b600073ffffffffffffffffffffffffffffffffffffffff168473ffffffffffffffffffffffffffffffffffffffff1603610150576040517f08c379a0000000000000000000000000000000000000000000000000000000008152600401610147906109ef565b60405180910390fd5b83600660006101000a81548173ffffffffffffffffffffffffffffffffffffffff021916908373ffffffffffffffffffffffffffffffffffffffff1602179055506101a133846102cb60201b60201c565b600082116101bb576014836101b69190610a6d565b6101bd565b815b600881905550600081116101dd576064836101d89190610a6d565b6101df565b805b6009819055506101f48461042d60201b60201c565b50505050610c66565b600033905090565b6000600560009054906101000a900473ffffffffffffffffffffffffffffffffffffffff16905081600560006101000a81548173ffffffffffffffffffffffffffffffffffffffff021916908373ffffffffffffffffffffffffffffffffffffffff1602179055508173ffffffffffffffffffffffffffffffffffffffff168173ffffffffffffffffffffffffffffffffffffffff167f8be0079c531659141344cd1fd0a4f28419497f9722a3daafe3b4186f6b6457e060405160405180910390a35050565b600073ffffffffffffffffffffffffffffffffffffffff168273ffffffffffffffffffffffffffffffffffffffff160361033a576040517f08c379a000000000000000000000000000000000000000000000000000000000815260040161033190610aea565b60405180910390fd5b61034c600083836104bc60201b60201c565b806002600082825461035e9190610b0a565b92505081905550806000808473ffffffffffffffffffffffffffffffffffffffff1673ffffffffffffffffffffffffffffffffffffffff168152602001908152602001600020600082825401925050819055508173ffffffffffffffffffffffffffffffffffffffff16600073ffffffffffffffffffffffffffffffffffffffff167fddf252ad1be2c89b69c2b068fc378daa952ba7f163c4a11628f55a4df523b3ef8360405161040f9190610b4d565b60405180910390a3610429600083836104c160201b60201c565b5050565b61043b6104c660201b60201c565b600073ffffffffffffffffffffffffffffffffffffffff168173ffffffffffffffffffffffffffffffffffffffff16036104aa576040517f08c379a00000000000000000000000000000000000000000000000000000000081526004016104a190610bda565b60405180910390fd5b6104b98161020560201b60201c565b50565b505050565b505050565b6104d46101fd60201b60201c565b73ffffffffffffffffffffffffffffffffffffffff166104f861055060201b60201c565b73ffffffffffffffffffffffffffffffffffffffff161461054e576040517f08c379a000000000000000000000000000000000000000000000000000000000815260040161054590610c46565b60405180910390fd5b565b6000600560009054906101000a900473ffffffffffffffffffffffffffffffffffffffff16905090565b600080fd5b600073ffffffffffffffffffffffffffffffffffffffff82169050919050565b60006105aa8261057f565b9050919050565b6105ba8161059f565b81146105c557600080fd5b50565b6000815190506105d7816105b1565b92915050565b6000819050919050565b6105f0816105dd565b81146105fb57600080fd5b50565b60008151905061060d816105e7565b92915050565b6000806000806080858703121561062d5761062c61057a565b5b600061063b878288016105c8565b945050602061064c878288016105fe565b935050604061065d878288016105fe565b925050606061066e878288016105fe565b91505092959194509250565b600081519050919050565b7f4e487b7100000000000000000000000000000000000000000000000000000000600052604160045260246000fd5b7f4e487b7100000000000000000000000000000000000000000000000000000000600052602260045260246000fd5b600060028204905060018216806106fb57607f821691505b60208210810361070e5761070d6106b4565b5b50919050565b60008190508160005260206000209050919050565b60006020601f8301049050919050565b600082821b905092915050565b6000600883026107767fffffffffffffffffffffffffffffffffffffffffffffffffffffffffffffffff82610739565b6107808683610739565b95508019841693508086168417925050509392505050565b6000819050919050565b60006107bd6107b86107b3846105dd565b610798565b6105dd565b9050919050565b6000819050919050565b6107d7836107a2565b6107eb6107e3826107c4565b848454610746565b825550505050565b600090565b6108006107f3565b61080b8184846107ce565b505050565b5b8181101561082f576108246000826107f8565b600181019050610811565b5050565b601f8211156108745761084581610714565b61084e84610729565b8101602085101561085d578190505b61087161086985610729565b830182610810565b50505b505050565b600082821c905092915050565b600061089760001984600802610879565b1980831691505092915050565b60006108b08383610886565b9150826002028217905092915050565b6108c98261067a565b67ffffffffffffffff8111156108e2576108e1610685565b5b6108ec82546106e3565b6108f7828285610833565b600060209050601f83116001811461092a5760008415610918578287015190505b61092285826108a4565b86555061098a565b601f19841661093886610714565b60005b828110156109605784890151825560018201915060208501945060208101905061093b565b8683101561097d5784890151610979601f891682610886565b8355505b6001600288020188555050505b505050505050565b600082825260208201905092915050565b7f547265617375727920616464726573732063616e6e6f74206265207a65726f00600082015250565b60006109d9601f83610992565b91506109e4826109a3565b602082019050919050565b60006020820190508181036000830152610a08816109cc565b9050919050565b7f4e487b7100000000000000000000000000000000000000000000000000000000600052601260045260246000fd5b7f4e487b7100000000000000000000000000000000000000000000000000000000600052601160045260246000fd5b6000610a78826105dd565b9150610a83836105dd565b925082610a9357610a92610a0f565b5b828204905092915050565b7f45524332303a206d696e7420746f20746865207a65726f206164647265737300600082015250565b6000610ad4601f83610992565b9150610adf82610a9e565b602082019050919050565b60006020820190508181036000830152610b0381610ac7565b9050919050565b6000610b15826105dd565b9150610b20836105dd565b9250828201905080821115610b3857610b37610a3e565b5b92915050565b610b47816105dd565b82525050565b6000602082019050610b626000830184610b3e565b92915050565b7f4f776e61626c653a206e6577206f776e657220697320746865207a65726f206160008201527f6464726573730000000000000000000000000000000000000000000000000000602082015250565b6000610bc4602683610992565b9150610bcf82610b68565b604082019050919050565b60006020820190508181036000830152610bf381610bb7565b9050919050565b7f4f776e61626c653a2063616c6c6572206973206e6f7420746865206f776e6572600082015250565b6000610c30602083610992565b9150610c3b82610bfa565b602082019050919050565b60006020820190508181036000830152610c5f81610c23565b9050919050565b61243280610c756000396000f3fe608060405234801561001057600080fd5b50600436106101735760003560e01c80638c0b5e22116100de578063b8606eef11610097578063ea1644d511610071578063ea1644d514610452578063ec28438a1461046e578063f0f442601461048a578063f2fde38b146104a657610173565b8063b8606eef146103e6578063d73792a914610404578063dd62ed3e1461042257610173565b80638c0b5e221461030e5780638da5cb5b1461032c5780638f3fa8601461034a57806395d89b4114610368578063a457c2d714610386578063a9059cbb146103b657610173565b806340c10f191161013057806340c10f191461026257806342966c681461027e57806361d027b31461029a57806369fe0e2d146102b857806370a08231146102d4578063715018a61461030457610173565b806306fdde0314610178578063095ea7b31461019657806318160ddd146101c657806323b872dd146101e4578063313ce567146102145780633950935114610232575b600080fd5b6101806104c2565b60405161018d919061172f565b60405180910390f35b6101b060048036038101906101ab91906117ea565b610554565b6040516101bd9190611845565b60405180910390f35b6101ce610577565b6040516101db919061186f565b60405180910390f35b6101fe60048036038101906101f9919061188a565b610581565b60405161020b9190611845565b60405180910390f35b61021c6105b0565b60405161022991906118f9565b60405180910390f35b61024c600480360381019061024791906117ea565b6105b9565b6040516102599190611845565b60405180910390f35b61027c600480360381019061027791906117ea565b6105f0565b005b61029860048036038101906102939190611914565b610606565b005b6102a261061a565b6040516102af9190611950565b60405180910390f35b6102d260048036038101906102cd9190611914565b610640565b005b6102ee60048036038101906102e9919061196b565b6106d2565b6040516102fb919061186f565b60405180910390f35b61030c61071a565b005b61031661072e565b604051610323919061186f565b60405180910390f35b610334610734565b6040516103419190611950565b60405180910390f35b61035261075e565b60405161035f919061186f565b60405180910390f35b610370610764565b60405161037d919061172f565b60405180910390f35b6103a0600480360381019061039b91906117ea565b6107f6565b6040516103ad9190611845565b60405180910390f35b6103d060048036038101906103cb91906117ea565b61086d565b6040516103dd9190611845565b60405180910390f35b6103ee610890565b6040516103fb919061186f565b60405180910390f35b61040c610896565b604051610419919061186f565b60405180910390f35b61043c60048036038101906104379190611998565b61089c565b604051610449919061186f565b60405180910390f35b61046c60048036038101906104679190611914565b610923565b005b61048860048036038101906104839190611914565b610970565b005b6104a4600480360381019061049f919061196b565b6109bd565b005b6104c060048036038101906104bb919061196b565b610af4565b005b6060600380546104d190611a07565b80601f01602080910402602001604051908101604052809291908181526020018280546104fd90611a07565b801561054a5780601f1061051f5761010080835404028352916020019161054a565b820191906000526020600020905b81548152906001019060200180831161052d57829003601f168201915b5050505050905090565b60008061055f610b77565b905061056c818585610b7f565b600191505092915050565b6000600254905090565b60008061058c610b77565b9050610599858285610d48565b6105a4858585610dd4565b60019150509392505050565b60006012905090565b6000806105c4610b77565b90506105e58185856105d6858961089c565b6105e09190611a67565b610b7f565b600191505092915050565b6105f8610fb8565b6106028282611036565b5050565b610617610611610b77565b8261118c565b50565b600660009054906101000a900473ffffffffffffffffffffffffffffffffffffffff1681565b610648610fb8565b6101f481111561068d576040517f08c379a000000000000000000000000000000000000000000000000000000000815260040161068490611ae7565b60405180910390fd5b7f5fc463da23c1b063e66f9e352006a7fbe8db7223c455dc429e881a2dfe2f94f1600754826040516106c0929190611b07565b60405180910390a18060078190555050565b60008060008373ffffffffffffffffffffffffffffffffffffffff1673ffffffffffffffffffffffffffffffffffffffff168152602001908152602001600020549050919050565b610722610fb8565b61072c6000611359565b565b60095481565b6000600560009054906101000a900473ffffffffffffffffffffffffffffffffffffffff16905090565b60085481565b60606004805461077390611a07565b80601f016020809104026020016040519081016040528092919081815260200182805461079f90611a07565b80156107ec5780601f106107c1576101008083540402835291602001916107ec565b820191906000526020600020905b8154815290600101906020018083116107cf57829003601f168201915b5050505050905090565b600080610801610b77565b9050600061080f828661089c565b905083811015610854576040517f08c379a000000000000000000000000000000000000000000000000000000000815260040161084b90611ba2565b60405180910390fd5b6108618286868403610b7f565b60019250505092915050565b600080610878610b77565b9050610885818585610dd4565b600191505092915050565b60075481565b61271081565b6000600160008473ffffffffffffffffffffffffffffffffffffffff1673ffffffffffffffffffffffffffffffffffffffff16815260200190815260200160002060008373ffffffffffffffffffffffffffffffffffffffff1673ffffffffffffffffffffffffffffffffffffffff16815260200190815260200160002054905092915050565b61092b610fb8565b7fc71c0262aec8246a87fcecc67a98745daf892ee2c2a934b79454fe60fa6c68fe6008548260405161095e929190611b07565b60405180910390a18060088190555050565b610978610fb8565b7fd6f586005531e7d32112f5389278497d656f7ed9029f31f85494a3f58ca18333600954826040516109ab929190611b07565b60405180910390a18060098190555050565b6109c5610fb8565b600073ffffffffffffffffffffffffffffffffffffffff168173ffffffffffffffffffffffffffffffffffffffff1603610a34576040517f08c379a0000000000000000000000000000000000000000000000000000000008152600401610a2b90611c0e565b60405180910390fd5b8073ffffffffffffffffffffffffffffffffffffffff16600660009054906101000a900473ffffffffffffffffffffffffffffffffffffffff1673ffffffffffffffffffffffffffffffffffffffff167f8c3aa5f43a388513435861bf27dfad7829cd248696fed367c62d441f6295449660405160405180910390a380600660006101000a81548173ffffffffffffffffffffffffffffffffffffffff021916908373ffffffffffffffffffffffffffffffffffffffff16021790555050565b610afc610fb8565b600073ffffffffffffffffffffffffffffffffffffffff168173ffffffffffffffffffffffffffffffffffffffff1603610b6b576040517f08c379a0000000000000000000000000000000000000000000000000000000008152600401610b6290611ca0565b60405180910390fd5b610b7481611359565b50565b600033905090565b600073ffffffffffffffffffffffffffffffffffffffff168373ffffffffffffffffffffffffffffffffffffffff1603610bee576040517f08c379a0000000000000000000000000000000000000000000000000000000008152600401610be590611d32565b60405180910390fd5b600073ffffffffffffffffffffffffffffffffffffffff168273ffffffffffffffffffffffffffffffffffffffff1603610c5d576040517f08c379a0000000000000000000000000000000000000000000000000000000008152600401610c5490611dc4565b60405180910390fd5b80600160008573ffffffffffffffffffffffffffffffffffffffff1673ffffffffffffffffffffffffffffffffffffffff16815260200190815260200160002060008473ffffffffffffffffffffffffffffffffffffffff1673ffffffffffffffffffffffffffffffffffffffff168152602001908152602001600020819055508173ffffffffffffffffffffffffffffffffffffffff168373ffffffffffffffffffffffffffffffffffffffff167f8c5be1e5ebec7d5bd14f71427d1e84f3dd0314c0f7b2291e5b200ac8c7c3b92583604051610d3b919061186f565b60405180910390a3505050565b6000610d54848461089c565b90507fffffffffffffffffffffffffffffffffffffffffffffffffffffffffffffffff8114610dce5781811015610dc0576040517f08c379a0000000000000000000000000000000000000000000000000000000008152600401610db790611e30565b60405180910390fd5b610dcd8484848403610b7f565b5b50505050565b600954811115610e19576040517f08c379a0000000000000000000000000000000000000000000000000000000008152600401610e1090611ec2565b60405180910390fd5b610e21610734565b73ffffffffffffffffffffffffffffffffffffffff168273ffffffffffffffffffffffffffffffffffffffff1614158015610eaa5750600660009054906101000a900473ffffffffffffffffffffffffffffffffffffffff1673ffffffffffffffffffffffffffffffffffffffff168273ffffffffffffffffffffffffffffffffffffffff1614155b8015610ee257503073ffffffffffffffffffffffffffffffffffffffff168273ffffffffffffffffffffffffffffffffffffffff1614155b15610f405760085481610ef4846106d2565b610efe9190611a67565b1115610f3f576040517f08c379a0000000000000000000000000000000000000000000000000000000008152600401610f3690611f54565b60405180910390fd5b5b600061271060075483610f539190611f74565b610f5d9190611fe5565b905060008183610f6d9190612016565b90506000821115610fa657610fa585600660009054906101000a900473ffffffffffffffffffffffffffffffffffffffff168461141f565b5b610fb185858361141f565b5050505050565b610fc0610b77565b73ffffffffffffffffffffffffffffffffffffffff16610fde610734565b73ffffffffffffffffffffffffffffffffffffffff1614611034576040517f08c379a000000000000000000000000000000000000000000000000000000000815260040161102b90612096565b60405180910390fd5b565b600073ffffffffffffffffffffffffffffffffffffffff168273ffffffffffffffffffffffffffffffffffffffff16036110a5576040517f08c379a000000000000000000000000000000000000000000000000000000000815260040161109c90612102565b60405180910390fd5b6110b160008383611695565b80600260008282546110c39190611a67565b92505081905550806000808473ffffffffffffffffffffffffffffffffffffffff1673ffffffffffffffffffffffffffffffffffffffff168152602001908152602001600020600082825401925050819055508173ffffffffffffffffffffffffffffffffffffffff16600073ffffffffffffffffffffffffffffffffffffffff167fddf252ad1be2c89b69c2b068fc378daa952ba7f163c4a11628f55a4df523b3ef83604051611174919061186f565b60405180910390a36111886000838361169a565b5050565b600073ffffffffffffffffffffffffffffffffffffffff168273ffffffffffffffffffffffffffffffffffffffff16036111fb576040517f08c379a00000000000000000000000000000000000000000000000000000000081526004016111f290612194565b60405180910390fd5b61120782600083611695565b60008060008473ffffffffffffffffffffffffffffffffffffffff1673ffffffffffffffffffffffffffffffffffffffff1681526020019081526020016000205490508181101561128d576040517f08c379a000000000000000000000000000000000000000000000000000000000815260040161128490612226565b60405180910390fd5b8181036000808573ffffffffffffffffffffffffffffffffffffffff1673ffffffffffffffffffffffffffffffffffffffff1681526020019081526020016000208190555081600260008282540392505081905550600073ffffffffffffffffffffffffffffffffffffffff168373ffffffffffffffffffffffffffffffffffffffff167fddf252ad1be2c89b69c2b068fc378daa952ba7f163c4a11628f55a4df523b3ef84604051611340919061186f565b60405180910390a36113548360008461169a565b505050565b6000600560009054906101000a900473ffffffffffffffffffffffffffffffffffffffff16905081600560006101000a81548173ffffffffffffffffffffffffffffffffffffffff021916908373ffffffffffffffffffffffffffffffffffffffff1602179055508173ffffffffffffffffffffffffffffffffffffffff168173ffffffffffffffffffffffffffffffffffffffff167f8be0079c531659141344cd1fd0a4f28419497f9722a3daafe3b4186f6b6457e060405160405180910390a35050565b600073ffffffffffffffffffffffffffffffffffffffff168373ffffffffffffffffffffffffffffffffffffffff160361148e576040517f08c379a0000000000000000000000000000000000000000000000000000000008152600401611485906122b8565b60405180910390fd5b600073ffffffffffffffffffffffffffffffffffffffff168273ffffffffffffffffffffffffffffffffffffffff16036114fd576040517f08c379a00000000000000000000000000000000000000000000000000000000081526004016114f49061234a565b60405180910390fd5b611508838383611695565b60008060008573ffffffffffffffffffffffffffffffffffffffff1673ffffffffffffffffffffffffffffffffffffffff1681526020019081526020016000205490508181101561158e576040517f08c379a0000000000000000000000000000000000000000000000000000000008152600401611585906123dc565b60405180910390fd5b8181036000808673ffffffffffffffffffffffffffffffffffffffff1673ffffffffffffffffffffffffffffffffffffffff16815260200190815260200160002081905550816000808573ffffffffffffffffffffffffffffffffffffffff1673ffffffffffffffffffffffffffffffffffffffff168152602001908152602001600020600082825401925050819055508273ffffffffffffffffffffffffffffffffffffffff168473ffffffffffffffffffffffffffffffffffffffff167fddf252ad1be2c89b69c2b068fc378daa952ba7f163c4a11628f55a4df523b3ef8460405161167c919061186f565b60405180910390a361168f84848461169a565b50505050565b505050565b505050565b600081519050919050565b600082825260208201905092915050565b60005b838110156116d95780820151818401526020810190506116be565b60008484015250505050565b6000601f19601f8301169050919050565b60006117018261169f565b61170b81856116aa565b935061171b8185602086016116bb565b611724816116e5565b840191505092915050565b6000602082019050818103600083015261174981846116f6565b905092915050565b600080fd5b600073ffffffffffffffffffffffffffffffffffffffff82169050919050565b600061178182611756565b9050919050565b61179181611776565b811461179c57600080fd5b50565b6000813590506117ae81611788565b92915050565b6000819050919050565b6117c7816117b4565b81146117d257600080fd5b50565b6000813590506117e4816117be565b92915050565b6000806040838503121561180157611800611751565b5b600061180f8582860161179f565b9250506020611820858286016117d5565b9150509250929050565b60008115159050919050565b61183f8161182a565b82525050565b600060208201905061185a6000830184611836565b92915050565b611869816117b4565b82525050565b60006020820190506118846000830184611860565b92915050565b6000806000606084860312156118a3576118a2611751565b5b60006118b18682870161179f565b93505060206118c28682870161179f565b92505060406118d3868287016117d5565b9150509250925092565b600060ff82169050919050565b6118f3816118dd565b82525050565b600060208201905061190e60008301846118ea565b92915050565b60006020828403121561192a57611929611751565b5b6000611938848285016117d5565b91505092915050565b61194a81611776565b82525050565b60006020820190506119656000830184611941565b92915050565b60006020828403121561198157611980611751565b5b600061198f8482850161179f565b91505092915050565b600080604083850312156119af576119ae611751565b5b60006119bd8582860161179f565b92505060206119ce8582860161179f565b9150509250929050565b7f4e487b7100000000000000000000000000000000000000000000000000000000600052602260045260246000fd5b60006002820490506001821680611a1f57607f821691505b602082108103611a3257611a316119d8565b5b50919050565b7f4e487b7100000000000000000000000000000000000000000000000000000000600052601160045260246000fd5b6000611a72826117b4565b9150611a7d836117b4565b9250828201905080821115611a9557611a94611a38565b5b92915050565b7f46656520746f6f20686967680000000000000000000000000000000000000000600082015250565b6000611ad1600c836116aa565b9150611adc82611a9b565b602082019050919050565b60006020820190508181036000830152611b0081611ac4565b9050919050565b6000604082019050611b1c6000830185611860565b611b296020830184611860565b9392505050565b7f45524332303a2064656372656173656420616c6c6f77616e63652062656c6f7760008201527f207a65726f000000000000000000000000000000000000000000000000000000602082015250565b6000611b8c6025836116aa565b9150611b9782611b30565b604082019050919050565b60006020820190508181036000830152611bbb81611b7f565b9050919050565b7f547265617375727920616464726573732063616e6e6f74206265207a65726f00600082015250565b6000611bf8601f836116aa565b9150611c0382611bc2565b602082019050919050565b60006020820190508181036000830152611c2781611beb565b9050919050565b7f4f776e61626c653a206e6577206f776e657220697320746865207a65726f206160008201527f6464726573730000000000000000000000000000000000000000000000000000602082015250565b6000611c8a6026836116aa565b9150611c9582611c2e565b604082019050919050565b60006020820190508181036000830152611cb981611c7d565b9050919050565b7f45524332303a20617070726f76652066726f6d20746865207a65726f2061646460008201527f7265737300000000000000000000000000000000000000000000000000000000602082015250565b6000611d1c6024836116aa565b9150611d2782611cc0565b604082019050919050565b60006020820190508181036000830152611d4b81611d0f565b9050919050565b7f45524332303a20617070726f766520746f20746865207a65726f20616464726560008201527f7373000000000000000000000000000000000000000000000000000000000000602082015250565b6000611dae6022836116aa565b9150611db982611d52565b604082019050919050565b60006020820190508181036000830152611ddd81611da1565b9050919050565b7f45524332303a20696e73756666696369656e7420616c6c6f77616e6365000000600082015250565b6000611e1a601d836116aa565b9150611e2582611de4565b602082019050919050565b60006020820190508181036000830152611e4981611e0d565b9050919050565b7f5472616e7366657220616d6f756e742065786365656473206d61785478416d6f60008201527f756e740000000000000000000000000000000000000000000000000000000000602082015250565b6000611eac6023836116aa565b9150611eb782611e50565b604082019050919050565b60006020820190508181036000830152611edb81611e9f565b9050919050565b7f526563697069656e742065786365656473206d61782077616c6c65742073697a60008201527f6500000000000000000000000000000000000000000000000000000000000000602082015250565b6000611f3e6021836116aa565b9150611f4982611ee2565b604082019050919050565b60006020820190508181036000830152611f6d81611f31565b9050919050565b6000611f7f826117b4565b9150611f8a836117b4565b9250828202611f98816117b4565b91508282048414831517611faf57611fae611a38565b5b5092915050565b7f4e487b7100000000000000000000000000000000000000000000000000000000600052601260045260246000fd5b6000611ff0826117b4565b9150611ffb836117b4565b92508261200b5761200a611fb6565b5b828204905092915050565b6000612021826117b4565b915061202c836117b4565b925082820390508181111561204457612043611a38565b5b92915050565b7f4f776e61626c653a2063616c6c6572206973206e6f7420746865206f776e6572600082015250565b60006120806020836116aa565b915061208b8261204a565b602082019050919050565b600060208201905081810360008301526120af81612073565b9050919050565b7f45524332303a206d696e7420746f20746865207a65726f206164647265737300600082015250565b60006120ec601f836116aa565b91506120f7826120b6565b602082019050919050565b6000602082019050818103600083015261211b816120df565b9050919050565b7f45524332303a206275726e2066726f6d20746865207a65726f2061646472657360008201527f7300000000000000000000000000000000000000000000000000000000000000602082015250565b600061217e6021836116aa565b915061218982612122565b604082019050919050565b600060208201905081810360008301526121ad81612171565b9050919050565b7f45524332303a206275726e20616d6f756e7420657863656564732062616c616e60008201527f6365000000000000000000000000000000000000000000000000000000000000602082015250565b60006122106022836116aa565b915061221b826121b4565b604082019050919050565b6000602082019050818103600083015261223f81612203565b9050919050565b7f45524332303a207472616e736665722066726f6d20746865207a65726f20616460008201527f6472657373000000000000000000000000000000000000000000000000000000602082015250565b60006122a26025836116aa565b91506122ad82612246565b604082019050919050565b600060208201905081810360008301526122d181612295565b9050919050565b7f45524332303a207472616e7366657220746f20746865207a65726f206164647260008201527f6573730000000000000000000000000000000000000000000000000000000000602082015250565b60006123346023836116aa565b915061233f826122d8565b604082019050919050565b6000602082019050818103600083015261236381612327565b9050919050565b7f45524332303a207472616e7366657220616d6f756e742065786365656473206260008201527f616c616e63650000000000000000000000000000000000000000000000000000602082015250565b60006123c66026836116aa565b91506123d18261236a565b604082019050919050565b600060208201905081810360008301526123f5816123b9565b905091905056fea2646970667358221220c21172b1210fca954714d7bf92ce181c195bf7d3dd5d6bdc09e8f29e84f9028e64736f6c634300081c0033",
  "linkReferences": {},
  "deployedLinkReferences": {}
}